{
  "_format": "hh-sol-artifact-1",
  "contractName": "EasyBet",
  "sourceName": "contracts/EasyBet.sol",
  "abi": [
    {
      "inputs": [],
      "stateMutability": "nonpayable",
      "type": "constructor"
    },
    {
      "inputs": [],
      "name": "ERC721EnumerableForbiddenBatchMint",
      "type": "error"
    },
    {
      "inputs": [
        {
          "internalType": "address",
          "name": "sender",
          "type": "address"
        },
        {
          "internalType": "uint256",
          "name": "tokenId",
          "type": "uint256"
        },
        {
          "internalType": "address",
          "name": "owner",
          "type": "address"
        }
      ],
      "name": "ERC721IncorrectOwner",
      "type": "error"
    },
    {
      "inputs": [
        {
          "internalType": "address",
          "name": "operator",
          "type": "address"
        },
        {
          "internalType": "uint256",
          "name": "tokenId",
          "type": "uint256"
        }
      ],
      "name": "ERC721InsufficientApproval",
      "type": "error"
    },
    {
      "inputs": [
        {
          "internalType": "address",
          "name": "approver",
          "type": "address"
        }
      ],
      "name": "ERC721InvalidApprover",
      "type": "error"
    },
    {
      "inputs": [
        {
          "internalType": "address",
          "name": "operator",
          "type": "address"
        }
      ],
      "name": "ERC721InvalidOperator",
      "type": "error"
    },
    {
      "inputs": [
        {
          "internalType": "address",
          "name": "owner",
          "type": "address"
        }
      ],
      "name": "ERC721InvalidOwner",
      "type": "error"
    },
    {
      "inputs": [
        {
          "internalType": "address",
          "name": "receiver",
          "type": "address"
        }
      ],
      "name": "ERC721InvalidReceiver",
      "type": "error"
    },
    {
      "inputs": [
        {
          "internalType": "address",
          "name": "sender",
          "type": "address"
        }
      ],
      "name": "ERC721InvalidSender",
      "type": "error"
    },
    {
      "inputs": [
        {
          "internalType": "uint256",
          "name": "tokenId",
          "type": "uint256"
        }
      ],
      "name": "ERC721NonexistentToken",
      "type": "error"
    },
    {
      "inputs": [
        {
          "internalType": "address",
          "name": "owner",
          "type": "address"
        },
        {
          "internalType": "uint256",
          "name": "index",
          "type": "uint256"
        }
      ],
      "name": "ERC721OutOfBoundsIndex",
      "type": "error"
    },
    {
      "inputs": [
        {
          "internalType": "address",
          "name": "owner",
          "type": "address"
        }
      ],
      "name": "OwnableInvalidOwner",
      "type": "error"
    },
    {
      "inputs": [
        {
          "internalType": "address",
          "name": "account",
          "type": "address"
        }
      ],
      "name": "OwnableUnauthorizedAccount",
      "type": "error"
    },
    {
      "anonymous": false,
      "inputs": [
        {
          "indexed": false,
          "internalType": "uint256",
          "name": "activityId",
          "type": "uint256"
        },
        {
          "indexed": false,
          "internalType": "address",
          "name": "creator",
          "type": "address"
        },
        {
          "indexed": false,
          "internalType": "string",
          "name": "description",
          "type": "string"
        },
        {
          "indexed": false,
          "internalType": "string[]",
          "name": "choices",
          "type": "string[]"
        }
      ],
      "name": "ActivityCreated",
      "type": "event"
    },
    {
      "anonymous": false,
      "inputs": [
        {
          "indexed": false,
          "internalType": "uint256",
          "name": "activityId",
          "type": "uint256"
        },
        {
          "indexed": false,
          "internalType": "uint8",
          "name": "winningChoiceIndex",
          "type": "uint8"
        }
      ],
      "name": "ActivityResolved",
      "type": "event"
    },
    {
      "anonymous": false,
      "inputs": [
        {
          "indexed": true,
          "internalType": "address",
          "name": "owner",
          "type": "address"
        },
        {
          "indexed": true,
          "internalType": "address",
          "name": "approved",
          "type": "address"
        },
        {
          "indexed": true,
          "internalType": "uint256",
          "name": "tokenId",
          "type": "uint256"
        }
      ],
      "name": "Approval",
      "type": "event"
    },
    {
      "anonymous": false,
      "inputs": [
        {
          "indexed": true,
          "internalType": "address",
          "name": "owner",
          "type": "address"
        },
        {
          "indexed": true,
          "internalType": "address",
          "name": "operator",
          "type": "address"
        },
        {
          "indexed": false,
          "internalType": "bool",
          "name": "approved",
          "type": "bool"
        }
      ],
      "name": "ApprovalForAll",
      "type": "event"
    },
    {
      "anonymous": false,
      "inputs": [
        {
          "indexed": false,
          "internalType": "uint256",
          "name": "tokenId",
          "type": "uint256"
        },
        {
          "indexed": false,
          "internalType": "uint256",
          "name": "price",
          "type": "uint256"
        },
        {
          "indexed": false,
          "internalType": "address",
          "name": "owner",
          "type": "address"
        },
        {
          "indexed": false,
          "internalType": "uint256",
          "name": "activityId",
          "type": "uint256"
        },
        {
          "indexed": false,
          "internalType": "uint256",
          "name": "choiceIndex",
          "type": "uint256"
        }
      ],
      "name": "BetPlaced",
      "type": "event"
    },
    {
      "anonymous": false,
      "inputs": [
        {
          "indexed": true,
          "internalType": "uint256",
          "name": "tokenId",
          "type": "uint256"
        }
      ],
      "name": "ListingCancelled",
      "type": "event"
    },
    {
      "anonymous": false,
      "inputs": [
        {
          "indexed": true,
          "internalType": "address",
          "name": "previousOwner",
          "type": "address"
        },
        {
          "indexed": true,
          "internalType": "address",
          "name": "newOwner",
          "type": "address"
        }
      ],
      "name": "OwnershipTransferred",
      "type": "event"
    },
    {
      "anonymous": false,
      "inputs": [
        {
          "indexed": false,
          "internalType": "uint256",
          "name": "activityId",
          "type": "uint256"
        },
        {
          "indexed": false,
          "internalType": "address",
          "name": "winner",
          "type": "address"
        },
        {
          "indexed": false,
          "internalType": "uint256",
          "name": "amount",
          "type": "uint256"
        }
      ],
      "name": "PrizeClaimed",
      "type": "event"
    },
    {
      "anonymous": false,
      "inputs": [
        {
          "indexed": true,
          "internalType": "uint256",
          "name": "tokenId",
          "type": "uint256"
        },
        {
          "indexed": false,
          "internalType": "uint256",
          "name": "price",
          "type": "uint256"
        }
      ],
      "name": "TicketListed",
      "type": "event"
    },
    {
      "anonymous": false,
      "inputs": [
        {
          "indexed": true,
          "internalType": "uint256",
          "name": "tokenId",
          "type": "uint256"
        },
        {
          "indexed": false,
          "internalType": "address",
          "name": "seller",
          "type": "address"
        },
        {
          "indexed": false,
          "internalType": "address",
          "name": "buyer",
          "type": "address"
        },
        {
          "indexed": false,
          "internalType": "uint256",
          "name": "price",
          "type": "uint256"
        }
      ],
      "name": "TicketSold",
      "type": "event"
    },
    {
      "anonymous": false,
      "inputs": [
        {
          "indexed": true,
          "internalType": "address",
          "name": "from",
          "type": "address"
        },
        {
          "indexed": true,
          "internalType": "address",
          "name": "to",
          "type": "address"
        },
        {
          "indexed": true,
          "internalType": "uint256",
          "name": "tokenId",
          "type": "uint256"
        }
      ],
      "name": "Transfer",
      "type": "event"
    },
    {
      "inputs": [
        {
          "internalType": "uint256",
          "name": "",
          "type": "uint256"
        }
      ],
      "name": "activities",
      "outputs": [
        {
          "internalType": "address",
          "name": "owner",
          "type": "address"
        },
        {
          "internalType": "uint256",
          "name": "listedTimestamp",
          "type": "uint256"
        },
        {
          "internalType": "string",
          "name": "description",
          "type": "string"
        },
        {
          "internalType": "uint256",
          "name": "prizePool",
          "type": "uint256"
        },
        {
          "internalType": "uint256",
          "name": "endTime",
          "type": "uint256"
        },
        {
          "internalType": "bool",
          "name": "isResolved",
          "type": "bool"
        },
        {
          "internalType": "uint8",
          "name": "winningChoiceIndex",
          "type": "uint8"
        },
        {
          "internalType": "bool",
          "name": "isActive",
          "type": "bool"
        }
      ],
      "stateMutability": "view",
      "type": "function"
    },
    {
      "inputs": [],
      "name": "activityCount",
      "outputs": [
        {
          "internalType": "uint256",
          "name": "",
          "type": "uint256"
        }
      ],
      "stateMutability": "view",
      "type": "function"
    },
    {
      "inputs": [
        {
          "internalType": "uint256",
          "name": "",
          "type": "uint256"
        }
      ],
      "name": "activityTicketCount",
      "outputs": [
        {
          "internalType": "uint256",
          "name": "",
          "type": "uint256"
        }
      ],
      "stateMutability": "view",
      "type": "function"
    },
    {
      "inputs": [
        {
          "internalType": "address",
          "name": "to",
          "type": "address"
        },
        {
          "internalType": "uint256",
          "name": "tokenId",
          "type": "uint256"
        }
      ],
      "name": "approve",
      "outputs": [],
      "stateMutability": "nonpayable",
      "type": "function"
    },
    {
      "inputs": [
        {
          "internalType": "address",
          "name": "owner",
          "type": "address"
        }
      ],
      "name": "balanceOf",
      "outputs": [
        {
          "internalType": "uint256",
          "name": "",
          "type": "uint256"
        }
      ],
      "stateMutability": "view",
      "type": "function"
    },
    {
      "inputs": [
        {
          "internalType": "uint256",
          "name": "tokenId",
          "type": "uint256"
        }
      ],
      "name": "buyListedTicket",
      "outputs": [],
      "stateMutability": "payable",
      "type": "function"
    },
    {
      "inputs": [
        {
          "internalType": "uint256",
          "name": "activityId",
          "type": "uint256"
        },
        {
          "internalType": "uint256",
          "name": "choiceIndex",
          "type": "uint256"
        }
      ],
      "name": "buyTicket",
      "outputs": [],
      "stateMutability": "payable",
      "type": "function"
    },
    {
      "inputs": [
        {
          "internalType": "uint256",
          "name": "tokenId",
          "type": "uint256"
        }
      ],
      "name": "cancelListing",
      "outputs": [],
      "stateMutability": "nonpayable",
      "type": "function"
    },
    {
      "inputs": [
        {
          "internalType": "uint256",
          "name": "activityId",
          "type": "uint256"
        }
      ],
      "name": "claimPrize",
      "outputs": [],
      "stateMutability": "nonpayable",
      "type": "function"
    },
    {
      "inputs": [
        {
          "internalType": "string",
          "name": "description",
          "type": "string"
        },
        {
          "internalType": "string[]",
          "name": "choices",
          "type": "string[]"
        },
        {
          "internalType": "uint256",
          "name": "durationHours",
          "type": "uint256"
        }
      ],
      "name": "createActivity",
      "outputs": [
        {
          "internalType": "uint256",
          "name": "",
          "type": "uint256"
        }
      ],
      "stateMutability": "nonpayable",
      "type": "function"
    },
    {
      "inputs": [
        {
          "internalType": "uint256",
          "name": "tokenId",
          "type": "uint256"
        }
      ],
      "name": "decodeTokenId",
      "outputs": [
        {
          "internalType": "uint256",
          "name": "activityId",
          "type": "uint256"
        },
        {
          "internalType": "uint256",
          "name": "localId",
          "type": "uint256"
        }
      ],
      "stateMutability": "pure",
      "type": "function"
    },
    {
      "inputs": [
        {
          "internalType": "uint256",
          "name": "activityId",
          "type": "uint256"
        }
      ],
      "name": "getActivityInfo",
      "outputs": [
        {
          "internalType": "address",
          "name": "owner",
          "type": "address"
        },
        {
          "internalType": "uint256",
          "name": "listedTimestamp",
          "type": "uint256"
        },
        {
          "internalType": "string",
          "name": "description",
          "type": "string"
        },
        {
          "internalType": "string[]",
          "name": "choices",
          "type": "string[]"
        },
        {
          "internalType": "uint256[]",
          "name": "choiceAmounts",
          "type": "uint256[]"
        },
        {
          "internalType": "uint256",
          "name": "prizePool",
          "type": "uint256"
        },
        {
          "internalType": "uint256",
          "name": "endTime",
          "type": "uint256"
        },
        {
          "internalType": "bool",
          "name": "isResolved",
          "type": "bool"
        },
        {
          "internalType": "uint256",
          "name": "winningChoiceIndex",
          "type": "uint256"
        },
        {
          "internalType": "bool",
          "name": "isActive",
          "type": "bool"
        }
      ],
      "stateMutability": "view",
      "type": "function"
    },
    {
      "inputs": [
        {
          "internalType": "uint256",
          "name": "tokenId",
          "type": "uint256"
        }
      ],
      "name": "getApproved",
      "outputs": [
        {
          "internalType": "address",
          "name": "",
          "type": "address"
        }
      ],
      "stateMutability": "view",
      "type": "function"
    },
    {
      "inputs": [
        {
          "internalType": "uint256",
          "name": "tokenId",
          "type": "uint256"
        }
      ],
      "name": "getTokenInfo",
      "outputs": [
        {
          "internalType": "uint256",
          "name": "activityId",
          "type": "uint256"
        },
        {
          "internalType": "uint256",
          "name": "choiceIndex",
          "type": "uint256"
        },
        {
          "internalType": "string",
          "name": "activityDescription",
          "type": "string"
        },
        {
          "internalType": "string",
          "name": "choiceName",
          "type": "string"
        }
      ],
      "stateMutability": "view",
      "type": "function"
    },
    {
      "inputs": [],
      "name": "helloworld",
      "outputs": [
        {
          "internalType": "string",
          "name": "",
          "type": "string"
        }
      ],
      "stateMutability": "pure",
      "type": "function"
    },
    {
      "inputs": [
        {
          "internalType": "address",
          "name": "owner",
          "type": "address"
        },
        {
          "internalType": "address",
          "name": "operator",
          "type": "address"
        }
      ],
      "name": "isApprovedForAll",
      "outputs": [
        {
          "internalType": "bool",
          "name": "",
          "type": "bool"
        }
      ],
      "stateMutability": "view",
      "type": "function"
    },
    {
      "inputs": [
        {
          "internalType": "uint256",
          "name": "tokenId",
          "type": "uint256"
        },
        {
          "internalType": "uint256",
          "name": "price",
          "type": "uint256"
        }
      ],
      "name": "listTicket",
      "outputs": [],
      "stateMutability": "nonpayable",
      "type": "function"
    },
    {
      "inputs": [
        {
          "internalType": "uint256",
          "name": "",
          "type": "uint256"
        }
      ],
      "name": "listings",
      "outputs": [
        {
          "internalType": "address",
          "name": "seller",
          "type": "address"
        },
        {
          "internalType": "uint256",
          "name": "price",
          "type": "uint256"
        },
        {
          "internalType": "bool",
          "name": "active",
          "type": "bool"
        }
      ],
      "stateMutability": "view",
      "type": "function"
    },
    {
      "inputs": [],
      "name": "name",
      "outputs": [
        {
          "internalType": "string",
          "name": "",
          "type": "string"
        }
      ],
      "stateMutability": "view",
      "type": "function"
    },
    {
      "inputs": [],
      "name": "owner",
      "outputs": [
        {
          "internalType": "address",
          "name": "",
          "type": "address"
        }
      ],
      "stateMutability": "view",
      "type": "function"
    },
    {
      "inputs": [
        {
          "internalType": "uint256",
          "name": "tokenId",
          "type": "uint256"
        }
      ],
      "name": "ownerOf",
      "outputs": [
        {
          "internalType": "address",
          "name": "",
          "type": "address"
        }
      ],
      "stateMutability": "view",
      "type": "function"
    },
    {
      "inputs": [],
      "name": "renounceOwnership",
      "outputs": [],
      "stateMutability": "nonpayable",
      "type": "function"
    },
    {
      "inputs": [
        {
          "internalType": "uint256",
          "name": "activityId",
          "type": "uint256"
        },
        {
          "internalType": "uint8",
          "name": "winningChoiceIndex",
          "type": "uint8"
        }
      ],
      "name": "resolveActivity",
      "outputs": [],
      "stateMutability": "nonpayable",
      "type": "function"
    },
    {
      "inputs": [
        {
          "internalType": "address",
          "name": "from",
          "type": "address"
        },
        {
          "internalType": "address",
          "name": "to",
          "type": "address"
        },
        {
          "internalType": "uint256",
          "name": "tokenId",
          "type": "uint256"
        }
      ],
      "name": "safeTransferFrom",
      "outputs": [],
      "stateMutability": "nonpayable",
      "type": "function"
    },
    {
      "inputs": [
        {
          "internalType": "address",
          "name": "from",
          "type": "address"
        },
        {
          "internalType": "address",
          "name": "to",
          "type": "address"
        },
        {
          "internalType": "uint256",
          "name": "tokenId",
          "type": "uint256"
        },
        {
          "internalType": "bytes",
          "name": "data",
          "type": "bytes"
        }
      ],
      "name": "safeTransferFrom",
      "outputs": [],
      "stateMutability": "nonpayable",
      "type": "function"
    },
    {
      "inputs": [
        {
          "internalType": "address",
          "name": "operator",
          "type": "address"
        },
        {
          "internalType": "bool",
          "name": "approved",
          "type": "bool"
        }
      ],
      "name": "setApprovalForAll",
      "outputs": [],
      "stateMutability": "nonpayable",
      "type": "function"
    },
    {
      "inputs": [
        {
          "internalType": "bytes4",
          "name": "interfaceId",
          "type": "bytes4"
        }
      ],
      "name": "supportsInterface",
      "outputs": [
        {
          "internalType": "bool",
          "name": "",
          "type": "bool"
        }
      ],
      "stateMutability": "view",
      "type": "function"
    },
    {
      "inputs": [],
      "name": "symbol",
      "outputs": [
        {
          "internalType": "string",
          "name": "",
          "type": "string"
        }
      ],
      "stateMutability": "view",
      "type": "function"
    },
    {
      "inputs": [
        {
          "internalType": "uint256",
          "name": "",
          "type": "uint256"
        }
      ],
      "name": "ticketClaimed",
      "outputs": [
        {
          "internalType": "bool",
          "name": "",
          "type": "bool"
        }
      ],
      "stateMutability": "view",
      "type": "function"
    },
    {
      "inputs": [
        {
          "internalType": "uint256",
          "name": "",
          "type": "uint256"
        }
      ],
      "name": "tokenBetAmount",
      "outputs": [
        {
          "internalType": "uint256",
          "name": "",
          "type": "uint256"
        }
      ],
      "stateMutability": "view",
      "type": "function"
    },
    {
      "inputs": [
        {
          "internalType": "uint256",
          "name": "index",
          "type": "uint256"
        }
      ],
      "name": "tokenByIndex",
      "outputs": [
        {
          "internalType": "uint256",
          "name": "",
          "type": "uint256"
        }
      ],
      "stateMutability": "view",
      "type": "function"
    },
    {
      "inputs": [
        {
          "internalType": "address",
          "name": "owner",
          "type": "address"
        },
        {
          "internalType": "uint256",
          "name": "index",
          "type": "uint256"
        }
      ],
      "name": "tokenOfOwnerByIndex",
      "outputs": [
        {
          "internalType": "uint256",
          "name": "",
          "type": "uint256"
        }
      ],
      "stateMutability": "view",
      "type": "function"
    },
    {
      "inputs": [
        {
          "internalType": "uint256",
          "name": "",
          "type": "uint256"
        }
      ],
      "name": "tokenToActivityId",
      "outputs": [
        {
          "internalType": "uint256",
          "name": "",
          "type": "uint256"
        }
      ],
      "stateMutability": "view",
      "type": "function"
    },
    {
      "inputs": [
        {
          "internalType": "uint256",
          "name": "",
          "type": "uint256"
        }
      ],
      "name": "tokenToChoiceIndex",
      "outputs": [
        {
          "internalType": "uint256",
          "name": "",
          "type": "uint256"
        }
      ],
      "stateMutability": "view",
      "type": "function"
    },
    {
      "inputs": [
        {
          "internalType": "uint256",
          "name": "tokenId",
          "type": "uint256"
        }
      ],
      "name": "tokenURI",
      "outputs": [
        {
          "internalType": "string",
          "name": "",
          "type": "string"
        }
      ],
      "stateMutability": "view",
      "type": "function"
    },
    {
      "inputs": [],
      "name": "totalSupply",
      "outputs": [
        {
          "internalType": "uint256",
          "name": "",
          "type": "uint256"
        }
      ],
      "stateMutability": "view",
      "type": "function"
    },
    {
      "inputs": [
        {
          "internalType": "uint256",
          "name": "",
          "type": "uint256"
        }
      ],
      "name": "totalWinningAmount",
      "outputs": [
        {
          "internalType": "uint256",
          "name": "",
          "type": "uint256"
        }
      ],
      "stateMutability": "view",
      "type": "function"
    },
    {
      "inputs": [
        {
          "internalType": "address",
          "name": "from",
          "type": "address"
        },
        {
          "internalType": "address",
          "name": "to",
          "type": "address"
        },
        {
          "internalType": "uint256",
          "name": "tokenId",
          "type": "uint256"
        }
      ],
      "name": "transferFrom",
      "outputs": [],
      "stateMutability": "nonpayable",
      "type": "function"
    },
    {
      "inputs": [
        {
          "internalType": "address",
          "name": "newOwner",
          "type": "address"
        }
      ],
      "name": "transferOwnership",
      "outputs": [],
      "stateMutability": "nonpayable",
      "type": "function"
    },
    {
      "inputs": [
        {
          "internalType": "uint256",
          "name": "",
          "type": "uint256"
        },
        {
          "internalType": "uint256",
          "name": "",
          "type": "uint256"
        },
        {
          "internalType": "uint256",
          "name": "",
          "type": "uint256"
        }
      ],
      "name": "winningTicketHolders",
      "outputs": [
        {
          "internalType": "address",
          "name": "",
          "type": "address"
        }
      ],
      "stateMutability": "view",
      "type": "function"
    }
  ],
  "bytecode": "0x60806040523480156200001157600080fd5b50336040518060400160405280600d81526020017f456173794265745469636b6574000000000000000000000000000000000000008152506040518060400160405280600381526020017f4542540000000000000000000000000000000000000000000000000000000000815250816000908162000090919062000472565b508060019081620000a2919062000472565b505050600073ffffffffffffffffffffffffffffffffffffffff168173ffffffffffffffffffffffffffffffffffffffff16036200011a5760006040517f1e4fbdf70000000000000000000000000000000000000000000000000000000081526004016200011191906200059e565b60405180910390fd5b6200012b816200013260201b60201c565b50620005bb565b6000600a60009054906101000a900473ffffffffffffffffffffffffffffffffffffffff16905081600a60006101000a81548173ffffffffffffffffffffffffffffffffffffffff021916908373ffffffffffffffffffffffffffffffffffffffff1602179055508173ffffffffffffffffffffffffffffffffffffffff168173ffffffffffffffffffffffffffffffffffffffff167f8be0079c531659141344cd1fd0a4f28419497f9722a3daafe3b4186f6b6457e060405160405180910390a35050565b600081519050919050565b7f4e487b7100000000000000000000000000000000000000000000000000000000600052604160045260246000fd5b7f4e487b7100000000000000000000000000000000000000000000000000000000600052602260045260246000fd5b600060028204905060018216806200027a57607f821691505b60208210810362000290576200028f62000232565b5b50919050565b60008190508160005260206000209050919050565b60006020601f8301049050919050565b600082821b905092915050565b600060088302620002fa7fffffffffffffffffffffffffffffffffffffffffffffffffffffffffffffffff82620002bb565b620003068683620002bb565b95508019841693508086168417925050509392505050565b6000819050919050565b6000819050919050565b6000620003536200034d62000347846200031e565b62000328565b6200031e565b9050919050565b6000819050919050565b6200036f8362000332565b620003876200037e826200035a565b848454620002c8565b825550505050565b600090565b6200039e6200038f565b620003ab81848462000364565b505050565b5b81811015620003d357620003c760008262000394565b600181019050620003b1565b5050565b601f8211156200042257620003ec8162000296565b620003f784620002ab565b8101602085101562000407578190505b6200041f6200041685620002ab565b830182620003b0565b50505b505050565b600082821c905092915050565b6000620004476000198460080262000427565b1980831691505092915050565b600062000462838362000434565b9150826002028217905092915050565b6200047d82620001f8565b67ffffffffffffffff81111562000499576200049862000203565b5b620004a5825462000261565b620004b2828285620003d7565b600060209050601f831160018114620004ea5760008415620004d5578287015190505b620004e1858262000454565b86555062000551565b601f198416620004fa8662000296565b60005b828110156200052457848901518255600182019150602085019450602081019050620004fd565b8683101562000544578489015162000540601f89168262000434565b8355505b6001600288020188555050505b505050505050565b600073ffffffffffffffffffffffffffffffffffffffff82169050919050565b6000620005868262000559565b9050919050565b620005988162000579565b82525050565b6000602082019050620005b560008301846200058d565b92915050565b615c1280620005cb6000396000f3fe60806040526004361061023b5760003560e01c806370a082311161012e578063c38e4604116100ab578063e6240deb1161006f578063e6240deb14610937578063e985e9c514610962578063ed3091011461099f578063f2fde38b146109dc578063feffc2c314610a055761023b565b8063c38e46041461082c578063c87b56dd14610855578063cb26de1c14610892578063d7098154146108cf578063de74e57b146108f85761023b565b80638cebac01116100f25780638cebac01146107475780638da5cb5b1461078457806395d89b41146107af578063a22cb465146107da578063b88d4fde146108035761023b565b806370a0823114610638578063715018a6146106755780637d36b9591461068c5780637efd9112146106c95780638c7a63ae146107075761023b565b806329aabb77116101bc578063305a905a11610180578063305a905a1461055057806342842e0e146105795780634f6ccce7146105a257806350248853146105df5780636352211e146105fb5761023b565b806329aabb77146104455780632c4fee9e146104825780632f2f4859146104bf5780632f745c59146104ea578063305a67a8146105275761023b565b806318160ddd1161020357806318160ddd1461035257806323b872dd1461037d57806324a77d4e146103a6578063262906c7146103ec578063298ec208146104295761023b565b806301ffc9a71461024057806306fdde031461027d578063081812fc146102a8578063095ea7b3146102e55780630d1657e81461030e575b600080fd5b34801561024c57600080fd5b5061026760048036038101906102629190613ea3565b610a42565b6040516102749190613eeb565b60405180910390f35b34801561028957600080fd5b50610292610abc565b60405161029f9190613f96565b60405180910390f35b3480156102b457600080fd5b506102cf60048036038101906102ca9190613fee565b610b4e565b6040516102dc919061405c565b60405180910390f35b3480156102f157600080fd5b5061030c600480360381019061030791906140a3565b610b6a565b005b34801561031a57600080fd5b5061033560048036038101906103309190613fee565b610b80565b60405161034998979695949392919061410e565b60405180910390f35b34801561035e57600080fd5b50610367610c97565b6040516103749190614193565b60405180910390f35b34801561038957600080fd5b506103a4600480360381019061039f91906141ae565b610ca4565b005b3480156103b257600080fd5b506103cd60048036038101906103c89190613fee565b610da6565b6040516103e39a999897969594939291906143cb565b60405180910390f35b3480156103f857600080fd5b50610413600480360381019061040e9190613fee565b61101b565b6040516104209190614193565b60405180910390f35b610443600480360381019061043e919061447c565b611033565b005b34801561045157600080fd5b5061046c60048036038101906104679190613fee565b611308565b6040516104799190614193565b60405180910390f35b34801561048e57600080fd5b506104a960048036038101906104a49190613fee565b611320565b6040516104b69190613eeb565b60405180910390f35b3480156104cb57600080fd5b506104d4611340565b6040516104e19190613f96565b60405180910390f35b3480156104f657600080fd5b50610511600480360381019061050c91906140a3565b61137d565b60405161051e9190614193565b60405180910390f35b34801561053357600080fd5b5061054e60048036038101906105499190613fee565b611426565b005b34801561055c57600080fd5b506105776004803603810190610572919061447c565b61158c565b005b34801561058557600080fd5b506105a0600480360381019061059b91906141ae565b611820565b005b3480156105ae57600080fd5b506105c960048036038101906105c49190613fee565b611840565b6040516105d69190614193565b60405180910390f35b6105f960048036038101906105f49190613fee565b6118b6565b005b34801561060757600080fd5b50610622600480360381019061061d9190613fee565b611aa3565b60405161062f919061405c565b60405180910390f35b34801561064457600080fd5b5061065f600480360381019061065a91906144bc565b611ab5565b60405161066c9190614193565b60405180910390f35b34801561068157600080fd5b5061068a611b6f565b005b34801561069857600080fd5b506106b360048036038101906106ae9190613fee565b611b83565b6040516106c09190614193565b60405180910390f35b3480156106d557600080fd5b506106f060048036038101906106eb9190613fee565b611b9b565b6040516106fe9291906144e9565b60405180910390f35b34801561071357600080fd5b5061072e60048036038101906107299190613fee565b611bb7565b60405161073e9493929190614512565b60405180910390f35b34801561075357600080fd5b5061076e60048036038101906107699190613fee565b611d4e565b60405161077b9190614193565b60405180910390f35b34801561079057600080fd5b50610799611d66565b6040516107a6919061405c565b60405180910390f35b3480156107bb57600080fd5b506107c4611d90565b6040516107d19190613f96565b60405180910390f35b3480156107e657600080fd5b5061080160048036038101906107fc9190614591565b611e22565b005b34801561080f57600080fd5b5061082a60048036038101906108259190614706565b611e38565b005b34801561083857600080fd5b50610853600480360381019061084e91906147b5565b611e5d565b005b34801561086157600080fd5b5061087c60048036038101906108779190613fee565b61201d565b6040516108899190613f96565b60405180910390f35b34801561089e57600080fd5b506108b960048036038101906108b4919061497c565b612086565b6040516108c69190614193565b60405180910390f35b3480156108db57600080fd5b506108f660048036038101906108f19190613fee565b612332565b005b34801561090457600080fd5b5061091f600480360381019061091a9190613fee565b6126a2565b60405161092e93929190614a07565b60405180910390f35b34801561094357600080fd5b5061094c6126f9565b6040516109599190614193565b60405180910390f35b34801561096e57600080fd5b5061098960048036038101906109849190614a3e565b6126ff565b6040516109969190613eeb565b60405180910390f35b3480156109ab57600080fd5b506109c660048036038101906109c19190614a7e565b612793565b6040516109d3919061405c565b60405180910390f35b3480156109e857600080fd5b50610a0360048036038101906109fe91906144bc565b6127ee565b005b348015610a1157600080fd5b50610a2c6004803603810190610a279190613fee565b612874565b604051610a399190614193565b60405180910390f35b60007f780e9d63000000000000000000000000000000000000000000000000000000007bffffffffffffffffffffffffffffffffffffffffffffffffffffffff1916827bffffffffffffffffffffffffffffffffffffffffffffffffffffffff19161480610ab55750610ab48261288c565b5b9050919050565b606060008054610acb90614b00565b80601f0160208091040260200160405190810160405280929190818152602001828054610af790614b00565b8015610b445780601f10610b1957610100808354040283529160200191610b44565b820191906000526020600020905b815481529060010190602001808311610b2757829003601f168201915b5050505050905090565b6000610b598261296e565b50610b63826129f6565b9050919050565b610b7c8282610b77612a33565b612a3b565b5050565b600b6020528060005260406000206000915090508060000160009054906101000a900473ffffffffffffffffffffffffffffffffffffffff1690806001015490806002018054610bcf90614b00565b80601f0160208091040260200160405190810160405280929190818152602001828054610bfb90614b00565b8015610c485780601f10610c1d57610100808354040283529160200191610c48565b820191906000526020600020905b815481529060010190602001808311610c2b57829003601f168201915b5050505050908060050154908060060154908060070160009054906101000a900460ff16908060070160019054906101000a900460ff16908060070160029054906101000a900460ff16905088565b6000600880549050905090565b600073ffffffffffffffffffffffffffffffffffffffff168273ffffffffffffffffffffffffffffffffffffffff1603610d165760006040517f64a0ae92000000000000000000000000000000000000000000000000000000008152600401610d0d919061405c565b60405180910390fd5b6000610d2a8383610d25612a33565b612a4d565b90508373ffffffffffffffffffffffffffffffffffffffff168173ffffffffffffffffffffffffffffffffffffffff1614610da0578382826040517f64283d7b000000000000000000000000000000000000000000000000000000008152600401610d9793929190614b31565b60405180910390fd5b50505050565b6000806060806060600080600080600080600b60008d815260200190815260200160002090508060000160009054906101000a900473ffffffffffffffffffffffffffffffffffffffff168160010154826002018360030184600401856005015486600601548760070160009054906101000a900460ff168860070160019054906101000a900460ff168960070160029054906101000a900460ff16878054610e4e90614b00565b80601f0160208091040260200160405190810160405280929190818152602001828054610e7a90614b00565b8015610ec75780601f10610e9c57610100808354040283529160200191610ec7565b820191906000526020600020905b815481529060010190602001808311610eaa57829003601f168201915b5050505050975086805480602002602001604051908101604052809291908181526020016000905b82821015610f9b578382906000526020600020018054610f0e90614b00565b80601f0160208091040260200160405190810160405280929190818152602001828054610f3a90614b00565b8015610f875780601f10610f5c57610100808354040283529160200191610f87565b820191906000526020600020905b815481529060010190602001808311610f6a57829003601f168201915b505050505081526020019060010190610eef565b50505050965085805480602002602001604051908101604052809291908181526020018280548015610fec57602002820191906000526020600020905b815481526020019060010190808311610fd8575b505050505095508160ff1691509a509a509a509a509a509a509a509a509a509a50509193959799509193959799565b60116020528060005260406000206000915090505481565b600c548210611077576040517f08c379a000000000000000000000000000000000000000000000000000000000815260040161106e90614bb4565b60405180910390fd5b600b60008381526020019081526020016000206003018054905081106110d2576040517f08c379a00000000000000000000000000000000000000000000000000000000081526004016110c990614c20565b60405180910390fd5b600b600083815260200190815260200160002060060154421061112a576040517f08c379a000000000000000000000000000000000000000000000000000000000815260040161112190614c8c565b60405180910390fd5b600b600083815260200190815260200160002060070160029054906101000a900460ff1661118d576040517f08c379a000000000000000000000000000000000000000000000000000000000815260040161118490614cf8565b60405180910390fd5b600034116111d0576040517f08c379a00000000000000000000000000000000000000000000000000000000081526004016111c790614d8a565b60405180910390fd5b6000600b60008481526020019081526020016000209050348160040183815481106111fe576111fd614daa565b5b9060005260206000200160008282546112179190614e08565b92505081905550348160050160008282546112329190614e08565b92505081905550600060116000858152602001908152602001600020600081548092919061125f90614e3c565b919050559050600081604086901b17905061127a3382612b6a565b84600f60008381526020019081526020016000208190555083601060008381526020019081526020016000208190555034600d6000838152602001908152602001600020819055507f9ab6b286d532c308925cb0664fe6228b8fe0d5137820cc28dc0ec44f7a3959e381343388886040516112f9959493929190614e84565b60405180910390a15050505050565b60106020528060005260406000206000915090505481565b60136020528060005260406000206000915054906101000a900460ff1681565b60606040518060400160405280600b81526020017f68656c6c6f20776f726c64000000000000000000000000000000000000000000815250905090565b600061138883611ab5565b82106113cd5782826040517fa57d13dc0000000000000000000000000000000000000000000000000000000081526004016113c4929190614ed7565b60405180910390fd5b600660008473ffffffffffffffffffffffffffffffffffffffff1673ffffffffffffffffffffffffffffffffffffffff168152602001908152602001600020600083815260200190815260200160002054905092915050565b3373ffffffffffffffffffffffffffffffffffffffff166014600083815260200190815260200160002060000160009054906101000a900473ffffffffffffffffffffffffffffffffffffffff1673ffffffffffffffffffffffffffffffffffffffff16146114ca576040517f08c379a00000000000000000000000000000000000000000000000000000000081526004016114c190614f4c565b60405180910390fd5b6014600082815260200190815260200160002060020160009054906101000a900460ff1661152d576040517f08c379a000000000000000000000000000000000000000000000000000000000815260040161152490614fb8565b60405180910390fd5b60006014600083815260200190815260200160002060020160006101000a81548160ff021916908315150217905550807f411aee90354c51b1b04cd563fcab2617142a9d50da19232d888547c8a1b7fd8a60405160405180910390a250565b3373ffffffffffffffffffffffffffffffffffffffff166115ac83611aa3565b73ffffffffffffffffffffffffffffffffffffffff1614611602576040517f08c379a00000000000000000000000000000000000000000000000000000000081526004016115f990615024565b60405180910390fd5b60008111611645576040517f08c379a000000000000000000000000000000000000000000000000000000000815260040161163c90615090565b60405180910390fd5b6000600f60008481526020019081526020016000205490506000600b600083815260200190815260200160002090508060070160009054906101000a900460ff16156116c6576040517f08c379a00000000000000000000000000000000000000000000000000000000081526004016116bd906150fc565b60405180910390fd5b6013600085815260200190815260200160002060009054906101000a900460ff1615611727576040517f08c379a000000000000000000000000000000000000000000000000000000000815260040161171e90615168565b60405180910390fd5b60405180606001604052803373ffffffffffffffffffffffffffffffffffffffff168152602001848152602001600115158152506014600086815260200190815260200160002060008201518160000160006101000a81548173ffffffffffffffffffffffffffffffffffffffff021916908373ffffffffffffffffffffffffffffffffffffffff1602179055506020820151816001015560408201518160020160006101000a81548160ff021916908315150217905550905050837fbca2f6391cafd6d28d39261ba883dd74090c618befb806e74ef434778bb2f7ed846040516118129190614193565b60405180910390a250505050565b61183b83838360405180602001604052806000815250611e38565b505050565b600061184a610c97565b8210611890576000826040517fa57d13dc000000000000000000000000000000000000000000000000000000008152600401611887929190614ed7565b60405180910390fd5b600882815481106118a4576118a3614daa565b5b90600052602060002001549050919050565b60006014600083815260200190815260200160002090508060020160009054906101000a900460ff1661191e576040517f08c379a0000000000000000000000000000000000000000000000000000000008152600401611915906151d4565b60405180910390fd5b80600101543414611964576040517f08c379a000000000000000000000000000000000000000000000000000000000815260040161195b90615240565b60405180910390fd5b60008160000160009054906101000a900473ffffffffffffffffffffffffffffffffffffffff16905060008260020160006101000a81548160ff0219169083151502179055506119b5813385612c63565b60008173ffffffffffffffffffffffffffffffffffffffff16346040516119db90615291565b60006040518083038185875af1925050503d8060008114611a18576040519150601f19603f3d011682016040523d82523d6000602084013e611a1d565b606091505b5050905080611a61576040517f08c379a0000000000000000000000000000000000000000000000000000000008152600401611a58906152f2565b60405180910390fd5b837f2bbc64d6afd28a753f6c5e4aaa894f1d684c44a0e080167eae104ac8505cfebd833334604051611a9593929190615312565b60405180910390a250505050565b6000611aae8261296e565b9050919050565b60008073ffffffffffffffffffffffffffffffffffffffff168273ffffffffffffffffffffffffffffffffffffffff1603611b285760006040517f89c62b64000000000000000000000000000000000000000000000000000000008152600401611b1f919061405c565b60405180910390fd5b600360008373ffffffffffffffffffffffffffffffffffffffff1673ffffffffffffffffffffffffffffffffffffffff168152602001908152602001600020549050919050565b611b77612dd0565b611b816000612e57565b565b600f6020528060005260406000206000915090505481565b600080604083901c915067ffffffffffffffff83169050915091565b600080606080600f6000868152602001908152602001600020549350601060008681526020019081526020016000205492506000600b60008681526020019081526020016000209050848482600201836003018781548110611c1c57611c1b614daa565b5b90600052602060002001818054611c3290614b00565b80601f0160208091040260200160405190810160405280929190818152602001828054611c5e90614b00565b8015611cab5780601f10611c8057610100808354040283529160200191611cab565b820191906000526020600020905b815481529060010190602001808311611c8e57829003601f168201915b50505050509150808054611cbe90614b00565b80601f0160208091040260200160405190810160405280929190818152602001828054611cea90614b00565b8015611d375780601f10611d0c57610100808354040283529160200191611d37565b820191906000526020600020905b815481529060010190602001808311611d1a57829003601f168201915b505050505090509450945094509450509193509193565b600d6020528060005260406000206000915090505481565b6000600a60009054906101000a900473ffffffffffffffffffffffffffffffffffffffff16905090565b606060018054611d9f90614b00565b80601f0160208091040260200160405190810160405280929190818152602001828054611dcb90614b00565b8015611e185780601f10611ded57610100808354040283529160200191611e18565b820191906000526020600020905b815481529060010190602001808311611dfb57829003601f168201915b5050505050905090565b611e34611e2d612a33565b8383612f1d565b5050565b611e43848484610ca4565b611e57611e4e612a33565b8585858561308c565b50505050565b611e65612dd0565b600c548210611ea9576040517f08c379a0000000000000000000000000000000000000000000000000000000008152600401611ea090614bb4565b60405180910390fd5b6000600b600084815260200190815260200160002090508060070160009054906101000a900460ff1615611f12576040517f08c379a0000000000000000000000000000000000000000000000000000000008152600401611f09906150fc565b60405180910390fd5b80600301805490508260ff1610611f5e576040517f08c379a0000000000000000000000000000000000000000000000000000000008152600401611f5590615395565b60405180910390fd5b8060060154421015611fa5576040517f08c379a0000000000000000000000000000000000000000000000000000000008152600401611f9c90615401565b60405180910390fd5b60018160070160006101000a81548160ff021916908315150217905550818160070160016101000a81548160ff021916908360ff1602179055507ffc33bab83ce4e2596b8f198aaf11194d4b397178d4dc7807458dee7de61910128383604051612010929190615421565b60405180910390a1505050565b60606120288261296e565b50600061203361323d565b90506000815111612053576040518060200160405280600081525061207e565b8061205d84613254565b60405160200161206e929190615486565b6040516020818303038152906040525b915050919050565b6000612090612dd0565b6002835110156120d5576040517f08c379a00000000000000000000000000000000000000000000000000000000081526004016120cc906154f6565b60405180910390fd5b6000600c549050600c60008154809291906120ef90614e3c565b91905055506040518061014001604052803373ffffffffffffffffffffffffffffffffffffffff168152602001428152602001868152602001858152602001855167ffffffffffffffff811115612149576121486145db565b5b6040519080825280602002602001820160405280156121775781602001602082028036833780820191505090505b50815260200160008152602001610e10856121929190615516565b4261219d9190614e08565b8152602001600015158152602001600060ff16815260200160011515815250600b600083815260200190815260200160002060008201518160000160006101000a81548173ffffffffffffffffffffffffffffffffffffffff021916908373ffffffffffffffffffffffffffffffffffffffff1602179055506020820151816001015560408201518160020190816122359190615704565b506060820151816003019080519060200190612252929190613d10565b50608082015181600401908051906020019061226f929190613d69565b5060a0820151816005015560c0820151816006015560e08201518160070160006101000a81548160ff0219169083151502179055506101008201518160070160016101000a81548160ff021916908360ff1602179055506101208201518160070160026101000a81548160ff0219169083151502179055509050507f010fa802625853d8fb6a3f3dbc7eecdba2320ef0bb2d0d55be582b2712538cd08133878760405161231f94939291906157d6565b60405180910390a1809150509392505050565b600c548110612376576040517f08c379a000000000000000000000000000000000000000000000000000000000815260040161236d90614bb4565b60405180910390fd5b6000600b600083815260200190815260200160002090508060070160009054906101000a900460ff166123de576040517f08c379a00000000000000000000000000000000000000000000000000000000081526004016123d590615875565b60405180910390fd5b60008160070160019054906101000a900460ff16905060008061240033611ab5565b905060005b818110156124e3576000612419338361137d565b905086600f60008381526020019081526020016000205414801561245257508460ff166010600083815260200190815260200160002054145b801561247c57506013600082815260200190815260200160002060009054906101000a900460ff16155b156124cf57600d600082815260200190815260200160002054846124a09190614e08565b935060016013600083815260200190815260200160002060006101000a81548160ff0219169083151502179055505b5080806124db90614e3c565b915050612405565b5060008211612527576040517f08c379a000000000000000000000000000000000000000000000000000000000815260040161251e90615907565b60405180910390fd5b6000846004018460ff168154811061254257612541614daa565b5b9060005260206000200154905060008111612592576040517f08c379a000000000000000000000000000000000000000000000000000000000815260040161258990615973565b60405180910390fd5b6000818487600501546125a59190615516565b6125af91906159c2565b905060003373ffffffffffffffffffffffffffffffffffffffff16826040516125d790615291565b60006040518083038185875af1925050503d8060008114612614576040519150601f19603f3d011682016040523d82523d6000602084013e612619565b606091505b505090508061265d576040517f08c379a000000000000000000000000000000000000000000000000000000000815260040161265490615a3f565b60405180910390fd5b7f4aa95f981a8337cb337de335b965507da0879c3b49f799d20058e913f5ad2c2688338460405161269093929190615a5f565b60405180910390a15050505050505050565b60146020528060005260406000206000915090508060000160009054906101000a900473ffffffffffffffffffffffffffffffffffffffff16908060010154908060020160009054906101000a900460ff16905083565b600c5481565b6000600560008473ffffffffffffffffffffffffffffffffffffffff1673ffffffffffffffffffffffffffffffffffffffff16815260200190815260200160002060008373ffffffffffffffffffffffffffffffffffffffff1673ffffffffffffffffffffffffffffffffffffffff16815260200190815260200160002060009054906101000a900460ff16905092915050565b601260205282600052604060002060205281600052604060002081815481106127bb57600080fd5b90600052602060002001600092509250509054906101000a900473ffffffffffffffffffffffffffffffffffffffff1681565b6127f6612dd0565b600073ffffffffffffffffffffffffffffffffffffffff168173ffffffffffffffffffffffffffffffffffffffff16036128685760006040517f1e4fbdf700000000000000000000000000000000000000000000000000000000815260040161285f919061405c565b60405180910390fd5b61287181612e57565b50565b600e6020528060005260406000206000915090505481565b60007f80ac58cd000000000000000000000000000000000000000000000000000000007bffffffffffffffffffffffffffffffffffffffffffffffffffffffff1916827bffffffffffffffffffffffffffffffffffffffffffffffffffffffff1916148061295757507f5b5e139f000000000000000000000000000000000000000000000000000000007bffffffffffffffffffffffffffffffffffffffffffffffffffffffff1916827bffffffffffffffffffffffffffffffffffffffffffffffffffffffff1916145b80612967575061296682613322565b5b9050919050565b60008061297a8361338c565b9050600073ffffffffffffffffffffffffffffffffffffffff168173ffffffffffffffffffffffffffffffffffffffff16036129ed57826040517f7e2732890000000000000000000000000000000000000000000000000000000081526004016129e49190614193565b60405180910390fd5b80915050919050565b60006004600083815260200190815260200160002060009054906101000a900473ffffffffffffffffffffffffffffffffffffffff169050919050565b600033905090565b612a4883838360016133c9565b505050565b600080612a5b85858561358e565b9050600073ffffffffffffffffffffffffffffffffffffffff168173ffffffffffffffffffffffffffffffffffffffff1603612a9f57612a9a846137a8565b612ade565b8473ffffffffffffffffffffffffffffffffffffffff168173ffffffffffffffffffffffffffffffffffffffff1614612add57612adc81856137f1565b5b5b600073ffffffffffffffffffffffffffffffffffffffff168573ffffffffffffffffffffffffffffffffffffffff1603612b2057612b1b846138dc565b612b5f565b8473ffffffffffffffffffffffffffffffffffffffff168173ffffffffffffffffffffffffffffffffffffffff1614612b5e57612b5d85856139ad565b5b5b809150509392505050565b600073ffffffffffffffffffffffffffffffffffffffff168273ffffffffffffffffffffffffffffffffffffffff1603612bdc5760006040517f64a0ae92000000000000000000000000000000000000000000000000000000008152600401612bd3919061405c565b60405180910390fd5b6000612bea83836000612a4d565b9050600073ffffffffffffffffffffffffffffffffffffffff168173ffffffffffffffffffffffffffffffffffffffff1614612c5e5760006040517f73c6ac6e000000000000000000000000000000000000000000000000000000008152600401612c55919061405c565b60405180910390fd5b505050565b600073ffffffffffffffffffffffffffffffffffffffff168273ffffffffffffffffffffffffffffffffffffffff1603612cd55760006040517f64a0ae92000000000000000000000000000000000000000000000000000000008152600401612ccc919061405c565b60405180910390fd5b6000612ce383836000612a4d565b9050600073ffffffffffffffffffffffffffffffffffffffff168173ffffffffffffffffffffffffffffffffffffffff1603612d5657816040517f7e273289000000000000000000000000000000000000000000000000000000008152600401612d4d9190614193565b60405180910390fd5b8373ffffffffffffffffffffffffffffffffffffffff168173ffffffffffffffffffffffffffffffffffffffff1614612dca578382826040517f64283d7b000000000000000000000000000000000000000000000000000000008152600401612dc193929190614b31565b60405180910390fd5b50505050565b612dd8612a33565b73ffffffffffffffffffffffffffffffffffffffff16612df6611d66565b73ffffffffffffffffffffffffffffffffffffffff1614612e5557612e19612a33565b6040517f118cdaa7000000000000000000000000000000000000000000000000000000008152600401612e4c919061405c565b60405180910390fd5b565b6000600a60009054906101000a900473ffffffffffffffffffffffffffffffffffffffff16905081600a60006101000a81548173ffffffffffffffffffffffffffffffffffffffff021916908373ffffffffffffffffffffffffffffffffffffffff1602179055508173ffffffffffffffffffffffffffffffffffffffff168173ffffffffffffffffffffffffffffffffffffffff167f8be0079c531659141344cd1fd0a4f28419497f9722a3daafe3b4186f6b6457e060405160405180910390a35050565b600073ffffffffffffffffffffffffffffffffffffffff168273ffffffffffffffffffffffffffffffffffffffff1603612f8e57816040517f5b08ba18000000000000000000000000000000000000000000000000000000008152600401612f85919061405c565b60405180910390fd5b80600560008573ffffffffffffffffffffffffffffffffffffffff1673ffffffffffffffffffffffffffffffffffffffff16815260200190815260200160002060008473ffffffffffffffffffffffffffffffffffffffff1673ffffffffffffffffffffffffffffffffffffffff16815260200190815260200160002060006101000a81548160ff0219169083151502179055508173ffffffffffffffffffffffffffffffffffffffff168373ffffffffffffffffffffffffffffffffffffffff167f17307eab39ab6107e8899845ad3d59bd9653f200f220920489ca2b5937696c318360405161307f9190613eeb565b60405180910390a3505050565b60008373ffffffffffffffffffffffffffffffffffffffff163b1115613236578273ffffffffffffffffffffffffffffffffffffffff1663150b7a02868685856040518563ffffffff1660e01b81526004016130eb9493929190615aeb565b6020604051808303816000875af192505050801561312757506040513d601f19601f820116820180604052508101906131249190615b4c565b60015b6131ab573d8060008114613157576040519150601f19603f3d011682016040523d82523d6000602084013e61315c565b606091505b5060008151036131a357836040517f64a0ae9200000000000000000000000000000000000000000000000000000000815260040161319a919061405c565b60405180910390fd5b805160208201fd5b63150b7a0260e01b7bffffffffffffffffffffffffffffffffffffffffffffffffffffffff1916817bffffffffffffffffffffffffffffffffffffffffffffffffffffffff19161461323457836040517f64a0ae9200000000000000000000000000000000000000000000000000000000815260040161322b919061405c565b60405180910390fd5b505b5050505050565b606060405180602001604052806000815250905090565b60606000600161326384613a38565b01905060008167ffffffffffffffff811115613282576132816145db565b5b6040519080825280601f01601f1916602001820160405280156132b45781602001600182028036833780820191505090505b509050600082602083010190505b600115613317578080600190039150507f3031323334353637383961626364656600000000000000000000000000000000600a86061a8153600a858161330b5761330a615993565b5b049450600085036132c2575b819350505050919050565b60007f01ffc9a7000000000000000000000000000000000000000000000000000000007bffffffffffffffffffffffffffffffffffffffffffffffffffffffff1916827bffffffffffffffffffffffffffffffffffffffffffffffffffffffff1916149050919050565b60006002600083815260200190815260200160002060009054906101000a900473ffffffffffffffffffffffffffffffffffffffff169050919050565b80806134025750600073ffffffffffffffffffffffffffffffffffffffff168273ffffffffffffffffffffffffffffffffffffffff1614155b156135365760006134128461296e565b9050600073ffffffffffffffffffffffffffffffffffffffff168373ffffffffffffffffffffffffffffffffffffffff161415801561347d57508273ffffffffffffffffffffffffffffffffffffffff168173ffffffffffffffffffffffffffffffffffffffff1614155b8015613490575061348e81846126ff565b155b156134d257826040517fa9fbf51f0000000000000000000000000000000000000000000000000000000081526004016134c9919061405c565b60405180910390fd5b811561353457838573ffffffffffffffffffffffffffffffffffffffff168273ffffffffffffffffffffffffffffffffffffffff167f8c5be1e5ebec7d5bd14f71427d1e84f3dd0314c0f7b2291e5b200ac8c7c3b92560405160405180910390a45b505b836004600085815260200190815260200160002060006101000a81548173ffffffffffffffffffffffffffffffffffffffff021916908373ffffffffffffffffffffffffffffffffffffffff16021790555050505050565b60008061359a8461338c565b9050600073ffffffffffffffffffffffffffffffffffffffff168373ffffffffffffffffffffffffffffffffffffffff16146135dc576135db818486613b8b565b5b600073ffffffffffffffffffffffffffffffffffffffff168173ffffffffffffffffffffffffffffffffffffffff161461366d5761361e6000856000806133c9565b6001600360008373ffffffffffffffffffffffffffffffffffffffff1673ffffffffffffffffffffffffffffffffffffffff168152602001908152602001600020600082825403925050819055505b600073ffffffffffffffffffffffffffffffffffffffff168573ffffffffffffffffffffffffffffffffffffffff16146136f0576001600360008773ffffffffffffffffffffffffffffffffffffffff1673ffffffffffffffffffffffffffffffffffffffff168152602001908152602001600020600082825401925050819055505b846002600086815260200190815260200160002060006101000a81548173ffffffffffffffffffffffffffffffffffffffff021916908373ffffffffffffffffffffffffffffffffffffffff160217905550838573ffffffffffffffffffffffffffffffffffffffff168273ffffffffffffffffffffffffffffffffffffffff167fddf252ad1be2c89b69c2b068fc378daa952ba7f163c4a11628f55a4df523b3ef60405160405180910390a4809150509392505050565b6008805490506009600083815260200190815260200160002081905550600881908060018154018082558091505060019003906000526020600020016000909190919091505550565b60006137fc83611ab5565b90506000600760008481526020019081526020016000205490506000600660008673ffffffffffffffffffffffffffffffffffffffff1673ffffffffffffffffffffffffffffffffffffffff16815260200190815260200160002090508282146138a85760008160008581526020019081526020016000205490508082600085815260200190815260200160002081905550826007600083815260200190815260200160002081905550505b6007600085815260200190815260200160002060009055806000848152602001908152602001600020600090555050505050565b600060016008805490506138f09190615b79565b90506000600960008481526020019081526020016000205490506000600883815481106139205761391f614daa565b5b90600052602060002001549050806008838154811061394257613941614daa565b5b90600052602060002001819055508160096000838152602001908152602001600020819055506009600085815260200190815260200160002060009055600880548061399157613990615bad565b5b6001900381819060005260206000200160009055905550505050565b600060016139ba84611ab5565b6139c49190615b79565b905081600660008573ffffffffffffffffffffffffffffffffffffffff1673ffffffffffffffffffffffffffffffffffffffff168152602001908152602001600020600083815260200190815260200160002081905550806007600084815260200190815260200160002081905550505050565b600080600090507a184f03e93ff9f4daa797ed6e38ed64bf6a1f0100000000000000008310613a96577a184f03e93ff9f4daa797ed6e38ed64bf6a1f0100000000000000008381613a8c57613a8b615993565b5b0492506040810190505b6d04ee2d6d415b85acef81000000008310613ad3576d04ee2d6d415b85acef81000000008381613ac957613ac8615993565b5b0492506020810190505b662386f26fc100008310613b0257662386f26fc100008381613af857613af7615993565b5b0492506010810190505b6305f5e1008310613b2b576305f5e1008381613b2157613b20615993565b5b0492506008810190505b6127108310613b50576127108381613b4657613b45615993565b5b0492506004810190505b60648310613b735760648381613b6957613b68615993565b5b0492506002810190505b600a8310613b82576001810190505b80915050919050565b613b96838383613c4f565b613c4a57600073ffffffffffffffffffffffffffffffffffffffff168373ffffffffffffffffffffffffffffffffffffffff1603613c0b57806040517f7e273289000000000000000000000000000000000000000000000000000000008152600401613c029190614193565b60405180910390fd5b81816040517f177e802f000000000000000000000000000000000000000000000000000000008152600401613c41929190614ed7565b60405180910390fd5b505050565b60008073ffffffffffffffffffffffffffffffffffffffff168373ffffffffffffffffffffffffffffffffffffffff1614158015613d0757508273ffffffffffffffffffffffffffffffffffffffff168473ffffffffffffffffffffffffffffffffffffffff161480613cc85750613cc784846126ff565b5b80613d0657508273ffffffffffffffffffffffffffffffffffffffff16613cee836129f6565b73ffffffffffffffffffffffffffffffffffffffff16145b5b90509392505050565b828054828255906000526020600020908101928215613d58579160200282015b82811115613d57578251829081613d479190615704565b5091602001919060010190613d30565b5b509050613d659190613db6565b5090565b828054828255906000526020600020908101928215613da5579160200282015b82811115613da4578251825591602001919060010190613d89565b5b509050613db29190613dda565b5090565b5b80821115613dd65760008181613dcd9190613df7565b50600101613db7565b5090565b5b80821115613df3576000816000905550600101613ddb565b5090565b508054613e0390614b00565b6000825580601f10613e155750613e34565b601f016020900490600052602060002090810190613e339190613dda565b5b50565b6000604051905090565b600080fd5b600080fd5b60007fffffffff0000000000000000000000000000000000000000000000000000000082169050919050565b613e8081613e4b565b8114613e8b57600080fd5b50565b600081359050613e9d81613e77565b92915050565b600060208284031215613eb957613eb8613e41565b5b6000613ec784828501613e8e565b91505092915050565b60008115159050919050565b613ee581613ed0565b82525050565b6000602082019050613f006000830184613edc565b92915050565b600081519050919050565b600082825260208201905092915050565b60005b83811015613f40578082015181840152602081019050613f25565b60008484015250505050565b6000601f19601f8301169050919050565b6000613f6882613f06565b613f728185613f11565b9350613f82818560208601613f22565b613f8b81613f4c565b840191505092915050565b60006020820190508181036000830152613fb08184613f5d565b905092915050565b6000819050919050565b613fcb81613fb8565b8114613fd657600080fd5b50565b600081359050613fe881613fc2565b92915050565b60006020828403121561400457614003613e41565b5b600061401284828501613fd9565b91505092915050565b600073ffffffffffffffffffffffffffffffffffffffff82169050919050565b60006140468261401b565b9050919050565b6140568161403b565b82525050565b6000602082019050614071600083018461404d565b92915050565b6140808161403b565b811461408b57600080fd5b50565b60008135905061409d81614077565b92915050565b600080604083850312156140ba576140b9613e41565b5b60006140c88582860161408e565b92505060206140d985828601613fd9565b9150509250929050565b6140ec81613fb8565b82525050565b600060ff82169050919050565b614108816140f2565b82525050565b600061010082019050614124600083018b61404d565b614131602083018a6140e3565b81810360408301526141438189613f5d565b905061415260608301886140e3565b61415f60808301876140e3565b61416c60a0830186613edc565b61417960c08301856140ff565b61418660e0830184613edc565b9998505050505050505050565b60006020820190506141a860008301846140e3565b92915050565b6000806000606084860312156141c7576141c6613e41565b5b60006141d58682870161408e565b93505060206141e68682870161408e565b92505060406141f786828701613fd9565b9150509250925092565b600081519050919050565b600082825260208201905092915050565b6000819050602082019050919050565b600082825260208201905092915050565b600061424982613f06565b614253818561422d565b9350614263818560208601613f22565b61426c81613f4c565b840191505092915050565b6000614283838361423e565b905092915050565b6000602082019050919050565b60006142a382614201565b6142ad818561420c565b9350836020820285016142bf8561421d565b8060005b858110156142fb57848403895281516142dc8582614277565b94506142e78361428b565b925060208a019950506001810190506142c3565b50829750879550505050505092915050565b600081519050919050565b600082825260208201905092915050565b6000819050602082019050919050565b61434281613fb8565b82525050565b60006143548383614339565b60208301905092915050565b6000602082019050919050565b60006143788261430d565b6143828185614318565b935061438d83614329565b8060005b838110156143be5781516143a58882614348565b97506143b083614360565b925050600181019050614391565b5085935050505092915050565b6000610140820190506143e1600083018d61404d565b6143ee602083018c6140e3565b8181036040830152614400818b613f5d565b90508181036060830152614414818a614298565b90508181036080830152614428818961436d565b905061443760a08301886140e3565b61444460c08301876140e3565b61445160e0830186613edc565b61445f6101008301856140e3565b61446d610120830184613edc565b9b9a5050505050505050505050565b6000806040838503121561449357614492613e41565b5b60006144a185828601613fd9565b92505060206144b285828601613fd9565b9150509250929050565b6000602082840312156144d2576144d1613e41565b5b60006144e08482850161408e565b91505092915050565b60006040820190506144fe60008301856140e3565b61450b60208301846140e3565b9392505050565b600060808201905061452760008301876140e3565b61453460208301866140e3565b81810360408301526145468185613f5d565b9050818103606083015261455a8184613f5d565b905095945050505050565b61456e81613ed0565b811461457957600080fd5b50565b60008135905061458b81614565565b92915050565b600080604083850312156145a8576145a7613e41565b5b60006145b68582860161408e565b92505060206145c78582860161457c565b9150509250929050565b600080fd5b600080fd5b7f4e487b7100000000000000000000000000000000000000000000000000000000600052604160045260246000fd5b61461382613f4c565b810181811067ffffffffffffffff82111715614632576146316145db565b5b80604052505050565b6000614645613e37565b9050614651828261460a565b919050565b600067ffffffffffffffff821115614671576146706145db565b5b61467a82613f4c565b9050602081019050919050565b82818337600083830152505050565b60006146a96146a484614656565b61463b565b9050828152602081018484840111156146c5576146c46145d6565b5b6146d0848285614687565b509392505050565b600082601f8301126146ed576146ec6145d1565b5b81356146fd848260208601614696565b91505092915050565b600080600080608085870312156147205761471f613e41565b5b600061472e8782880161408e565b945050602061473f8782880161408e565b935050604061475087828801613fd9565b925050606085013567ffffffffffffffff81111561477157614770613e46565b5b61477d878288016146d8565b91505092959194509250565b614792816140f2565b811461479d57600080fd5b50565b6000813590506147af81614789565b92915050565b600080604083850312156147cc576147cb613e41565b5b60006147da85828601613fd9565b92505060206147eb858286016147a0565b9150509250929050565b600067ffffffffffffffff8211156148105761480f6145db565b5b61481982613f4c565b9050602081019050919050565b6000614839614834846147f5565b61463b565b905082815260208101848484011115614855576148546145d6565b5b614860848285614687565b509392505050565b600082601f83011261487d5761487c6145d1565b5b813561488d848260208601614826565b91505092915050565b600067ffffffffffffffff8211156148b1576148b06145db565b5b602082029050602081019050919050565b600080fd5b60006148da6148d584614896565b61463b565b905080838252602082019050602084028301858111156148fd576148fc6148c2565b5b835b8181101561494457803567ffffffffffffffff811115614922576149216145d1565b5b80860161492f8982614868565b855260208501945050506020810190506148ff565b5050509392505050565b600082601f830112614963576149626145d1565b5b81356149738482602086016148c7565b91505092915050565b60008060006060848603121561499557614994613e41565b5b600084013567ffffffffffffffff8111156149b3576149b2613e46565b5b6149bf86828701614868565b935050602084013567ffffffffffffffff8111156149e0576149df613e46565b5b6149ec8682870161494e565b92505060406149fd86828701613fd9565b9150509250925092565b6000606082019050614a1c600083018661404d565b614a2960208301856140e3565b614a366040830184613edc565b949350505050565b60008060408385031215614a5557614a54613e41565b5b6000614a638582860161408e565b9250506020614a748582860161408e565b9150509250929050565b600080600060608486031215614a9757614a96613e41565b5b6000614aa586828701613fd9565b9350506020614ab686828701613fd9565b9250506040614ac786828701613fd9565b9150509250925092565b7f4e487b7100000000000000000000000000000000000000000000000000000000600052602260045260246000fd5b60006002820490506001821680614b1857607f821691505b602082108103614b2b57614b2a614ad1565b5b50919050565b6000606082019050614b46600083018661404d565b614b5360208301856140e3565b614b60604083018461404d565b949350505050565b7f416374697669747920646f6573206e6f74206578697374000000000000000000600082015250565b6000614b9e601783613f11565b9150614ba982614b68565b602082019050919050565b60006020820190508181036000830152614bcd81614b91565b9050919050565b7f496e76616c69642063686f69636520696e646578000000000000000000000000600082015250565b6000614c0a601483613f11565b9150614c1582614bd4565b602082019050919050565b60006020820190508181036000830152614c3981614bfd565b9050919050565b7f41637469766974792068617320656e6465640000000000000000000000000000600082015250565b6000614c76601283613f11565b9150614c8182614c40565b602082019050919050565b60006020820190508181036000830152614ca581614c69565b9050919050565b7f4163746976697479206973206e6f742061637469766500000000000000000000600082015250565b6000614ce2601683613f11565b9150614ced82614cac565b602082019050919050565b60006020820190508181036000830152614d1181614cd5565b9050919050565b7f42657420616d6f756e74206d7573742062652067726561746572207468616e2060008201527f7a65726f00000000000000000000000000000000000000000000000000000000602082015250565b6000614d74602483613f11565b9150614d7f82614d18565b604082019050919050565b60006020820190508181036000830152614da381614d67565b9050919050565b7f4e487b7100000000000000000000000000000000000000000000000000000000600052603260045260246000fd5b7f4e487b7100000000000000000000000000000000000000000000000000000000600052601160045260246000fd5b6000614e1382613fb8565b9150614e1e83613fb8565b9250828201905080821115614e3657614e35614dd9565b5b92915050565b6000614e4782613fb8565b91507fffffffffffffffffffffffffffffffffffffffffffffffffffffffffffffffff8203614e7957614e78614dd9565b5b600182019050919050565b600060a082019050614e9960008301886140e3565b614ea660208301876140e3565b614eb3604083018661404d565b614ec060608301856140e3565b614ecd60808301846140e3565b9695505050505050565b6000604082019050614eec600083018561404d565b614ef960208301846140e3565b9392505050565b7f4e6f742073656c6c657200000000000000000000000000000000000000000000600082015250565b6000614f36600a83613f11565b9150614f4182614f00565b602082019050919050565b60006020820190508181036000830152614f6581614f29565b9050919050565b7f4e6f74206c697374656400000000000000000000000000000000000000000000600082015250565b6000614fa2600a83613f11565b9150614fad82614f6c565b602082019050919050565b60006020820190508181036000830152614fd181614f95565b9050919050565b7f4e6f74206f776e65720000000000000000000000000000000000000000000000600082015250565b600061500e600983613f11565b915061501982614fd8565b602082019050919050565b6000602082019050818103600083015261503d81615001565b9050919050565b7f5072696365206d757374206265203e2030000000000000000000000000000000600082015250565b600061507a601183613f11565b915061508582615044565b602082019050919050565b600060208201905081810360008301526150a98161506d565b9050919050565b7f416374697669747920616c7265616479207265736f6c76656400000000000000600082015250565b60006150e6601983613f11565b91506150f1826150b0565b602082019050919050565b60006020820190508181036000830152615115816150d9565b9050919050565b7f5469636b657420616c726561647920636c61696d656400000000000000000000600082015250565b6000615152601683613f11565b915061515d8261511c565b602082019050919050565b6000602082019050818103600083015261518181615145565b9050919050565b7f4e6f74206c6973746564206f7220696e61637469766500000000000000000000600082015250565b60006151be601683613f11565b91506151c982615188565b602082019050919050565b600060208201905081810360008301526151ed816151b1565b9050919050565b7f496e636f72726563742070726963650000000000000000000000000000000000600082015250565b600061522a600f83613f11565b9150615235826151f4565b602082019050919050565b600060208201905081810360008301526152598161521d565b9050919050565b600081905092915050565b50565b600061527b600083615260565b91506152868261526b565b600082019050919050565b600061529c8261526e565b9150819050919050565b7f4661696c656420746f2073656e642045544820746f2073656c6c657200000000600082015250565b60006152dc601c83613f11565b91506152e7826152a6565b602082019050919050565b6000602082019050818103600083015261530b816152cf565b9050919050565b6000606082019050615327600083018661404d565b615334602083018561404d565b61534160408301846140e3565b949350505050565b7f496e76616c69642077696e6e696e672063686f69636520696e64657800000000600082015250565b600061537f601c83613f11565b915061538a82615349565b602082019050919050565b600060208201905081810360008301526153ae81615372565b9050919050565b7f4163746976697479206e6f7420656e6465642079657400000000000000000000600082015250565b60006153eb601683613f11565b91506153f6826153b5565b602082019050919050565b6000602082019050818103600083015261541a816153de565b9050919050565b600060408201905061543660008301856140e3565b61544360208301846140ff565b9392505050565b600081905092915050565b600061546082613f06565b61546a818561544a565b935061547a818560208601613f22565b80840191505092915050565b60006154928285615455565b915061549e8284615455565b91508190509392505050565b7f4174206c656173742074776f2063686f69636573207265717569726564000000600082015250565b60006154e0601d83613f11565b91506154eb826154aa565b602082019050919050565b6000602082019050818103600083015261550f816154d3565b9050919050565b600061552182613fb8565b915061552c83613fb8565b925082820261553a81613fb8565b9150828204841483151761555157615550614dd9565b5b5092915050565b60008190508160005260206000209050919050565b60006020601f8301049050919050565b600082821b905092915050565b6000600883026155ba7fffffffffffffffffffffffffffffffffffffffffffffffffffffffffffffffff8261557d565b6155c4868361557d565b95508019841693508086168417925050509392505050565b6000819050919050565b60006156016155fc6155f784613fb8565b6155dc565b613fb8565b9050919050565b6000819050919050565b61561b836155e6565b61562f61562782615608565b84845461558a565b825550505050565b600090565b615644615637565b61564f818484615612565b505050565b5b818110156156735761566860008261563c565b600181019050615655565b5050565b601f8211156156b85761568981615558565b6156928461556d565b810160208510156156a1578190505b6156b56156ad8561556d565b830182615654565b50505b505050565b600082821c905092915050565b60006156db600019846008026156bd565b1980831691505092915050565b60006156f483836156ca565b9150826002028217905092915050565b61570d82613f06565b67ffffffffffffffff811115615726576157256145db565b5b6157308254614b00565b61573b828285615677565b600060209050601f83116001811461576e576000841561575c578287015190505b61576685826156e8565b8655506157ce565b601f19841661577c86615558565b60005b828110156157a45784890151825560018201915060208501945060208101905061577f565b868310156157c157848901516157bd601f8916826156ca565b8355505b6001600288020188555050505b505050505050565b60006080820190506157eb60008301876140e3565b6157f8602083018661404d565b818103604083015261580a8185613f5d565b9050818103606083015261581e8184614298565b905095945050505050565b7f4163746976697479206e6f74207265736f6c7665640000000000000000000000600082015250565b600061585f601583613f11565b915061586a82615829565b602082019050919050565b6000602082019050818103600083015261588e81615852565b9050919050565b7f4e6f2077696e6e696e67207469636b657473206f7220616c726561647920636c60008201527f61696d6564000000000000000000000000000000000000000000000000000000602082015250565b60006158f1602583613f11565b91506158fc82615895565b604082019050919050565b60006020820190508181036000830152615920816158e4565b9050919050565b7f4e6f2062657473206f6e2077696e6e696e672063686f69636500000000000000600082015250565b600061595d601983613f11565b915061596882615927565b602082019050919050565b6000602082019050818103600083015261598c81615950565b9050919050565b7f4e487b7100000000000000000000000000000000000000000000000000000000600052601260045260246000fd5b60006159cd82613fb8565b91506159d883613fb8565b9250826159e8576159e7615993565b5b828204905092915050565b7f4661696c656420746f2073656e64207072697a65000000000000000000000000600082015250565b6000615a29601483613f11565b9150615a34826159f3565b602082019050919050565b60006020820190508181036000830152615a5881615a1c565b9050919050565b6000606082019050615a7460008301866140e3565b615a81602083018561404d565b615a8e60408301846140e3565b949350505050565b600081519050919050565b600082825260208201905092915050565b6000615abd82615a96565b615ac78185615aa1565b9350615ad7818560208601613f22565b615ae081613f4c565b840191505092915050565b6000608082019050615b00600083018761404d565b615b0d602083018661404d565b615b1a60408301856140e3565b8181036060830152615b2c8184615ab2565b905095945050505050565b600081519050615b4681613e77565b92915050565b600060208284031215615b6257615b61613e41565b5b6000615b7084828501615b37565b91505092915050565b6000615b8482613fb8565b9150615b8f83613fb8565b9250828203905081811115615ba757615ba6614dd9565b5b92915050565b7f4e487b7100000000000000000000000000000000000000000000000000000000600052603160045260246000fdfea264697066735822122041186d0c749325f3070ee9a5f0807b3451474d6e0954cbd2282fc7a02c80158464736f6c63430008140033",
  "linkReferences": {},
  "deployedLinkReferences": {}
}